{
  "abi": [
    {
      "inputs": [],
      "payable": false,
      "stateMutability": "nonpayable",
      "type": "constructor"
    },
    {
      "constant": false,
      "inputs": [
        {
          "internalType": "bytes",
          "name": "transactions",
          "type": "bytes"
        }
      ],
      "name": "multiSend",
      "outputs": [],
      "payable": true,
      "stateMutability": "payable",
      "type": "function"
    }
  ],
  "address": "0x636D3336B120498CC3B596FF30B20e87d813953f",
  "args": [],
  "solcInputHash": "0xa6f01a0f07442d6fc23cf909895c0d2c547995f1b1e1d657452b42211e778d20",
  "bytecode": "0x608060405234801561001057600080fd5b50604080517f6d756c746973656e642e67756172642e627974657333320000000000000000008152905190819003601701902060005561022a806100556000396000f3fe60806040526004361061001e5760003560e01c80638d80ff0a14610023575b600080fd5b6100c96004803603602081101561003957600080fd5b81019060208101813564010000000081111561005457600080fd5b82018360208201111561006657600080fd5b8035906020019184600183028401116401000000008311171561008857600080fd5b91908080601f0160208091040260200160405190810160405280939291908181526020018383808284376000920191909152509295506100cb945050505050565b005b604080517f6d756c746973656e642e67756172642e6279746573333200000000000000000081529051908190036017019020600054141561013d5760405162461bcd60e51b81526004018080602001828103825260308152602001806101c66030913960400191505060405180910390fd5b805160205b818110156101c0578083015160f81c6001820184015160601c6015830185015160358401860151605585018701600085600081146101875760018114610197576101a2565b6000808585888a5af191506101a2565b6000808585895af491505b50806101ad57600080fd5b8260550187019650505050505050610142565b50505056fe4d756c746953656e642073686f756c64206f6e6c792062652063616c6c6564207669612064656c656761746563616c6ca265627a7a72315820d583c485fde558bd378a7d9ac0032ed2009797901a8f4dfe8c886fccd4a008b664736f6c634300050c0032",
  "devdoc": {
    "author": "Nick Dodson - <nick.dodson@consensys.net>Gonçalo Sá - <goncalo.sa@consensys.net>Stefan George - <stefan@gnosis.io>Richard Meissner - <richard@gnosis.io>modified by Luis Schliesske",
    "methods": {
      "multiSend(bytes)": {
        "details": "Sends multiple transactions and reverts all if one fails.",
        "params": {
          "transactions": "Encoded transactions. Each transaction is encoded as a packed bytes of                     operation as a uint8 with 0 for a call or 1 for a delegatecall (=> 1 byte),                     to as a address (=> 20 bytes),                     value as a uint256 (=> 32 bytes),                     data length as a uint256 (=> 32 bytes),                     data as bytes.                     see abi.encodePacked for more information on packed encoding"
        }
      }
    },
    "title": "Multi Send - Allows to batch multiple transactions into one."
  },
  "userdoc": {
    "methods": {}
  },
  "gasEstimates": {
    "creation": {
      "codeDepositCost": "110800",
      "executionCost": "20243",
      "totalCost": "131043"
    },
    "external": {
      "multiSend(bytes)": "infinite"
    }
  }
}